{
  "contractName": "OrderPaymentEscrow",
  "abi": [
    {
      "inputs": [],
      "stateMutability": "nonpayable",
      "type": "constructor"
    },
    {
      "anonymous": false,
      "inputs": [
        {
          "indexed": false,
          "internalType": "uint256",
          "name": "orderId",
          "type": "uint256"
        },
        {
          "indexed": false,
          "internalType": "uint256",
          "name": "amount",
          "type": "uint256"
        },
        {
          "indexed": false,
          "internalType": "address",
          "name": "buyer",
          "type": "address"
        },
        {
          "indexed": false,
          "internalType": "string",
          "name": "transactionHash",
          "type": "string"
        }
      ],
      "name": "OrderPaid",
      "type": "event"
    },
    {
      "inputs": [
        {
          "internalType": "uint256",
          "name": "",
          "type": "uint256"
        }
      ],
      "name": "orderTxHash",
      "outputs": [
        {
          "internalType": "string",
          "name": "",
          "type": "string"
        }
      ],
      "stateMutability": "view",
      "type": "function",
      "constant": true
    },
    {
      "inputs": [
        {
          "internalType": "uint256",
          "name": "",
          "type": "uint256"
        }
      ],
      "name": "orders",
      "outputs": [
        {
          "internalType": "uint256",
          "name": "orderId",
          "type": "uint256"
        },
        {
          "internalType": "uint256",
          "name": "productId",
          "type": "uint256"
        },
        {
          "internalType": "uint256",
          "name": "buyerId",
          "type": "uint256"
        },
        {
          "internalType": "uint256",
          "name": "quantity",
          "type": "uint256"
        },
        {
          "internalType": "uint256",
          "name": "price",
          "type": "uint256"
        },
        {
          "internalType": "enum OrderPaymentEscrow.PaymentStatus",
          "name": "paymentStatus",
          "type": "uint8"
        },
        {
          "internalType": "enum OrderPaymentEscrow.DeliveryStatus",
          "name": "deliveryStatus",
          "type": "uint8"
        },
        {
          "internalType": "uint256",
          "name": "orderDate",
          "type": "uint256"
        },
        {
          "internalType": "uint256",
          "name": "farmer_id",
          "type": "uint256"
        },
        {
          "internalType": "address",
          "name": "buyer",
          "type": "address"
        }
      ],
      "stateMutability": "view",
      "type": "function",
      "constant": true
    },
    {
      "inputs": [],
      "name": "owner",
      "outputs": [
        {
          "internalType": "address",
          "name": "",
          "type": "address"
        }
      ],
      "stateMutability": "view",
      "type": "function",
      "constant": true
    },
    {
      "inputs": [
        {
          "internalType": "uint256",
          "name": "orderId",
          "type": "uint256"
        },
        {
          "internalType": "uint256",
          "name": "productId",
          "type": "uint256"
        },
        {
          "internalType": "uint256",
          "name": "buyerId",
          "type": "uint256"
        },
        {
          "internalType": "uint256",
          "name": "quantity",
          "type": "uint256"
        },
        {
          "internalType": "uint256",
          "name": "price",
          "type": "uint256"
        },
        {
          "internalType": "uint256",
          "name": "farmer_id",
          "type": "uint256"
        },
        {
          "internalType": "address",
          "name": "buyer",
          "type": "address"
        }
      ],
      "name": "createOrder",
      "outputs": [],
      "stateMutability": "nonpayable",
      "type": "function"
    },
    {
      "inputs": [
        {
          "internalType": "uint256",
          "name": "orderId",
          "type": "uint256"
        }
      ],
      "name": "payForOrder",
      "outputs": [],
      "stateMutability": "payable",
      "type": "function",
      "payable": true
    },
    {
      "inputs": [
        {
          "internalType": "uint256",
          "name": "orderId",
          "type": "uint256"
        }
      ],
      "name": "deliverOrder",
      "outputs": [],
      "stateMutability": "nonpayable",
      "type": "function"
    }
  ],
  "bytecode": "0x6080604052348015600e575f5ffd5b50335f5f6101000a81548173ffffffffffffffffffffffffffffffffffffffff021916908373ffffffffffffffffffffffffffffffffffffffff1602179055506110e48061005b5f395ff3fe608060405260043610610054575f3560e01c80630d553e94146100585780636292d1d6146100945780638da5cb5b146100bc578063a85c38ef146100e6578063d9c2dcee1461012b578063ddff5e7d14610147575b5f5ffd5b348015610063575f5ffd5b5061007e60048036038101906100799190610801565b61016f565b60405161008b919061089c565b60405180910390f35b34801561009f575f5ffd5b506100ba60048036038101906100b59190610916565b61020a565b005b3480156100c7575f5ffd5b506100d0610420565b6040516100dd91906109c2565b60405180910390f35b3480156100f1575f5ffd5b5061010c60048036038101906101079190610801565b610444565b6040516101229a99989796959493929190610aa3565b60405180910390f35b61014560048036038101906101409190610801565b6104cc565b005b348015610152575f5ffd5b5061016d60048036038101906101689190610801565b6106a7565b005b6002602052805f5260405f205f91509050805461018b90610b6a565b80601f01602080910402602001604051908101604052809291908181526020018280546101b790610b6a565b80156102025780601f106101d957610100808354040283529160200191610202565b820191905f5260205f20905b8154815290600101906020018083116101e557829003601f168201915b505050505081565b5f5f9054906101000a900473ffffffffffffffffffffffffffffffffffffffff1673ffffffffffffffffffffffffffffffffffffffff163373ffffffffffffffffffffffffffffffffffffffff1614610298576040517f08c379a000000000000000000000000000000000000000000000000000000000815260040161028f90610c0a565b60405180910390fd5b6040518061014001604052808881526020018781526020018681526020018581526020018481526020015f60018111156102d5576102d46109ea565b5b81526020015f60018111156102ed576102ec6109ea565b5b81526020014281526020018381526020018273ffffffffffffffffffffffffffffffffffffffff1681525060015f8981526020019081526020015f205f820151815f01556020820151816001015560408201518160020155606082015181600301556080820151816004015560a0820151816005015f6101000a81548160ff02191690836001811115610383576103826109ea565b5b021790555060c08201518160050160016101000a81548160ff021916908360018111156103b3576103b26109ea565b5b021790555060e082015181600601556101008201518160070155610120820151816008015f6101000a81548173ffffffffffffffffffffffffffffffffffffffff021916908373ffffffffffffffffffffffffffffffffffffffff16021790555090505050505050505050565b5f5f9054906101000a900473ffffffffffffffffffffffffffffffffffffffff1681565b6001602052805f5260405f205f91509050805f015490806001015490806002015490806003015490806004015490806005015f9054906101000a900460ff16908060050160019054906101000a900460ff1690806006015490806007015490806008015f9054906101000a900473ffffffffffffffffffffffffffffffffffffffff1690508a565b5f60015f8381526020019081526020015f2090505f815f015403610525576040517f08c379a000000000000000000000000000000000000000000000000000000000815260040161051c90610c72565b60405180910390fd5b5f6001811115610538576105376109ea565b5b816005015f9054906101000a900460ff16600181111561055b5761055a6109ea565b5b1461059b576040517f08c379a000000000000000000000000000000000000000000000000000000000815260040161059290610cda565b60405180910390fd5b806004015434146105e1576040517f08c379a00000000000000000000000000000000000000000000000000000000081526004016105d890610d42565b60405180910390fd5b6001816005015f6101000a81548160ff02191690836001811115610608576106076109ea565b5b02179055505f6040518060400160405280601381526020017f536f6d655472616e73616374696f6e486173680000000000000000000000000081525090508060025f8581526020019081526020015f2090816106649190610f2d565b507fce500ecad6b263936edacb5912a90cecdb887cc7dd02f42bbb3d2845153aa3108334338460405161069a9493929190610ffc565b60405180910390a1505050565b5f60015f8381526020019081526020015f2090506001808111156106ce576106cd6109ea565b5b816005015f9054906101000a900460ff1660018111156106f1576106f06109ea565b5b14610731576040517f08c379a000000000000000000000000000000000000000000000000000000000815260040161072890611090565b60405180910390fd5b60018160050160016101000a81548160ff02191690836001811115610759576107586109ea565b5b02179055505f5f9054906101000a900473ffffffffffffffffffffffffffffffffffffffff1673ffffffffffffffffffffffffffffffffffffffff166108fc826004015490811502906040515f60405180830381858888f193505050501580156107c5573d5f5f3e3d5ffd5b505050565b5f5ffd5b5f819050919050565b6107e0816107ce565b81146107ea575f5ffd5b50565b5f813590506107fb816107d7565b92915050565b5f60208284031215610816576108156107ca565b5b5f610823848285016107ed565b91505092915050565b5f81519050919050565b5f82825260208201905092915050565b8281835e5f83830152505050565b5f601f19601f8301169050919050565b5f61086e8261082c565b6108788185610836565b9350610888818560208601610846565b61089181610854565b840191505092915050565b5f6020820190508181035f8301526108b48184610864565b905092915050565b5f73ffffffffffffffffffffffffffffffffffffffff82169050919050565b5f6108e5826108bc565b9050919050565b6108f5816108db565b81146108ff575f5ffd5b50565b5f81359050610910816108ec565b92915050565b5f5f5f5f5f5f5f60e0888a031215610931576109306107ca565b5b5f61093e8a828b016107ed565b975050602061094f8a828b016107ed565b96505060406109608a828b016107ed565b95505060606109718a828b016107ed565b94505060806109828a828b016107ed565b93505060a06109938a828b016107ed565b92505060c06109a48a828b01610902565b91505092959891949750929550565b6109bc816108db565b82525050565b5f6020820190506109d55f8301846109b3565b92915050565b6109e4816107ce565b82525050565b7f4e487b71000000000000000000000000000000000000000000000000000000005f52602160045260245ffd5b60028110610a2857610a276109ea565b5b50565b5f819050610a3882610a17565b919050565b5f610a4782610a2b565b9050919050565b610a5781610a3d565b82525050565b60028110610a6e57610a6d6109ea565b5b50565b5f819050610a7e82610a5d565b919050565b5f610a8d82610a71565b9050919050565b610a9d81610a83565b82525050565b5f61014082019050610ab75f83018d6109db565b610ac4602083018c6109db565b610ad1604083018b6109db565b610ade606083018a6109db565b610aeb60808301896109db565b610af860a0830188610a4e565b610b0560c0830187610a94565b610b1260e08301866109db565b610b206101008301856109db565b610b2e6101208301846109b3565b9b9a5050505050505050505050565b7f4e487b71000000000000000000000000000000000000000000000000000000005f52602260045260245ffd5b5f6002820490506001821680610b8157607f821691505b602082108103610b9457610b93610b3d565b5b50919050565b7f4f6e6c792074686520636f6e7472616374206f776e65722063616e20637265615f8201527f7465206f72646572732e00000000000000000000000000000000000000000000602082015250565b5f610bf4602a83610836565b9150610bff82610b9a565b604082019050919050565b5f6020820190508181035f830152610c2181610be8565b9050919050565b7f4f7264657220646f6573206e6f742065786973742e00000000000000000000005f82015250565b5f610c5c601583610836565b9150610c6782610c28565b602082019050919050565b5f6020820190508181035f830152610c8981610c50565b9050919050565b7f4f7264657220616c726561647920706169642e000000000000000000000000005f82015250565b5f610cc4601383610836565b9150610ccf82610c90565b602082019050919050565b5f6020820190508181035f830152610cf181610cb8565b9050919050565b7f496e636f7272656374207061796d656e7420616d6f756e742e000000000000005f82015250565b5f610d2c601983610836565b9150610d3782610cf8565b602082019050919050565b5f6020820190508181035f830152610d5981610d20565b9050919050565b7f4e487b71000000000000000000000000000000000000000000000000000000005f52604160045260245ffd5b5f819050815f5260205f209050919050565b5f6020601f8301049050919050565b5f82821b905092915050565b5f60088302610de97fffffffffffffffffffffffffffffffffffffffffffffffffffffffffffffffff82610dae565b610df38683610dae565b95508019841693508086168417925050509392505050565b5f819050919050565b5f610e2e610e29610e24846107ce565b610e0b565b6107ce565b9050919050565b5f819050919050565b610e4783610e14565b610e5b610e5382610e35565b848454610dba565b825550505050565b5f5f905090565b610e72610e63565b610e7d818484610e3e565b505050565b5b81811015610ea057610e955f82610e6a565b600181019050610e83565b5050565b601f821115610ee557610eb681610d8d565b610ebf84610d9f565b81016020851015610ece578190505b610ee2610eda85610d9f565b830182610e82565b50505b505050565b5f82821c905092915050565b5f610f055f1984600802610eea565b1980831691505092915050565b5f610f1d8383610ef6565b9150826002028217905092915050565b610f368261082c565b67ffffffffffffffff811115610f4f57610f4e610d60565b5b610f598254610b6a565b610f64828285610ea4565b5f60209050601f831160018114610f95575f8415610f83578287015190505b610f8d8582610f12565b865550610ff4565b601f198416610fa386610d8d565b5f5b82811015610fca57848901518255600182019150602085019450602081019050610fa5565b86831015610fe75784890151610fe3601f891682610ef6565b8355505b6001600288020188555050505b505050505050565b5f60808201905061100f5f8301876109db565b61101c60208301866109db565b61102960408301856109b3565b818103606083015261103b8184610864565b905095945050505050565b7f5061796d656e74206e6f742072656365697665642e00000000000000000000005f82015250565b5f61107a601583610836565b915061108582611046565b602082019050919050565b5f6020820190508181035f8301526110a78161106e565b905091905056fea2646970667358221220cf83ff5b449471870d986a681450da8c9796a54805d0463c486b662c6a09c7a764736f6c634300081c0033",
  "immutableReferences": {},
  "source": "// SPDX-License-Identifier: MIT\r\npragma solidity ^0.8.0;\r\n\r\ncontract OrderPaymentEscrow {\r\n\r\n    address public owner;\r\n\r\n    // Enum to represent payment status\r\n    enum PaymentStatus { Pending, Paid }\r\n    // Enum to represent delivery status\r\n    enum DeliveryStatus { Pending, Delivered }\r\n\r\n    // Struct to represent an order\r\n    struct Order {\r\n        uint256 orderId;\r\n        uint256 productId;\r\n        uint256 buyerId;\r\n        uint256 quantity;\r\n        uint256 price;\r\n        PaymentStatus paymentStatus;\r\n        DeliveryStatus deliveryStatus;\r\n        uint256 orderDate;\r\n        uint256 farmer_id;\r\n        address buyer;\r\n    }\r\n\r\n    mapping(uint256 => Order) public orders;\r\n    mapping(uint256 => string) public orderTxHash;\r\n\r\n    event OrderPaid(uint256 orderId, uint256 amount, address buyer, string transactionHash);\r\n\r\n    constructor() {\r\n        owner = msg.sender;  // Contract owner (can be the marketplace or seller)\r\n    }\r\n\r\n    // Function to create an order (not required in this case, as orders are created on backend)\r\n    function createOrder(\r\n        uint256 orderId, \r\n        uint256 productId, \r\n        uint256 buyerId, \r\n        uint256 quantity, \r\n        uint256 price, \r\n        uint256 farmer_id, \r\n        address buyer\r\n    ) external {\r\n        require(msg.sender == owner, \"Only the contract owner can create orders.\");\r\n        orders[orderId] = Order(\r\n            orderId, \r\n            productId, \r\n            buyerId, \r\n            quantity, \r\n            price, \r\n            PaymentStatus.Pending, \r\n            DeliveryStatus.Pending, \r\n            block.timestamp, \r\n            farmer_id, \r\n            buyer\r\n        );\r\n    }\r\n\r\n    // Function to handle payment, this will be triggered by the backend\r\n    function payForOrder(uint256 orderId) external payable {\r\n        Order storage order = orders[orderId];\r\n        require(order.orderId != 0, \"Order does not exist.\");\r\n        require(order.paymentStatus == PaymentStatus.Pending, \"Order already paid.\");\r\n        require(msg.value == order.price, \"Incorrect payment amount.\");\r\n\r\n        order.paymentStatus = PaymentStatus.Paid;\r\n        \r\n        string memory txHash = \"SomeTransactionHash\"; // Replace this with actual tx hash from Web3.js\r\n        orderTxHash[orderId] = txHash;\r\n\r\n        emit OrderPaid(orderId, msg.value, msg.sender, txHash);\r\n    }\r\n\r\n    // Function to release the payment to the farmer after delivery (not implemented here, but follows the same process)\r\n    function deliverOrder(uint256 orderId) external {\r\n        Order storage order = orders[orderId];\r\n        require(order.paymentStatus == PaymentStatus.Paid, \"Payment not received.\");\r\n\r\n        order.deliveryStatus = DeliveryStatus.Delivered;\r\n        payable(owner).transfer(order.price);  // Transfer the payment to the farmer (or contract owner)\r\n    }\r\n}\r\n",
  "sourcePath": "C:\\Users\\khanm\\Documents\\meTry\\crush\\contracts\\OrderPaymentEscrow.sol",
  "compiler": {
    "name": "solc",
    "version": "0.8.28+commit.7893614a.Emscripten.clang"
  },
  "schemaVersion": "3.4.16",
  "updatedAt": "2024-11-30T15:14:05.847Z",
  "networkType": "ethereum",
  "devdoc": {
    "kind": "dev",
    "methods": {},
    "version": 1
  },
  "userdoc": {
    "kind": "user",
    "methods": {},
    "version": 1
  }
}